{
    "contractName": "NFT",
    "abi": [
        {
            "inputs": [
                {
                    "internalType": "address",
                    "name": "_marketplaceAddress",
                    "type": "address"
                },
                {
                    "internalType": "string",
                    "name": "__name",
                    "type": "string"
                },
                {
                    "internalType": "string",
                    "name": "__symbol",
                    "type": "string"
                }
            ],
            "stateMutability": "nonpayable",
            "type": "constructor"
        },
        {
            "anonymous": false,
            "inputs": [
                {
                    "indexed": true,
                    "internalType": "address",
                    "name": "owner",
                    "type": "address"
                },
                {
                    "indexed": true,
                    "internalType": "address",
                    "name": "approved",
                    "type": "address"
                },
                {
                    "indexed": true,
                    "internalType": "uint256",
                    "name": "tokenId",
                    "type": "uint256"
                }
            ],
            "name": "Approval",
            "type": "event"
        },
        {
            "anonymous": false,
            "inputs": [
                {
                    "indexed": true,
                    "internalType": "address",
                    "name": "owner",
                    "type": "address"
                },
                {
                    "indexed": true,
                    "internalType": "address",
                    "name": "operator",
                    "type": "address"
                },
                {
                    "indexed": false,
                    "internalType": "bool",
                    "name": "approved",
                    "type": "bool"
                }
            ],
            "name": "ApprovalForAll",
            "type": "event"
        },
        {
            "anonymous": false,
            "inputs": [
                {
                    "indexed": true,
                    "internalType": "address",
                    "name": "from",
                    "type": "address"
                },
                {
                    "indexed": true,
                    "internalType": "address",
                    "name": "to",
                    "type": "address"
                },
                {
                    "indexed": true,
                    "internalType": "uint256",
                    "name": "tokenId",
                    "type": "uint256"
                }
            ],
            "name": "Transfer",
            "type": "event"
        },
        {
            "inputs": [
                {
                    "internalType": "address",
                    "name": "to",
                    "type": "address"
                },
                {
                    "internalType": "uint256",
                    "name": "tokenId",
                    "type": "uint256"
                }
            ],
            "name": "approve",
            "outputs": [],
            "stateMutability": "nonpayable",
            "type": "function"
        },
        {
            "inputs": [
                {
                    "internalType": "address",
                    "name": "owner",
                    "type": "address"
                }
            ],
            "name": "balanceOf",
            "outputs": [
                {
                    "internalType": "uint256",
                    "name": "",
                    "type": "uint256"
                }
            ],
            "stateMutability": "view",
            "type": "function"
        },
        {
            "inputs": [
                {
                    "internalType": "string",
                    "name": "tokenURI",
                    "type": "string"
                }
            ],
            "name": "createNFT",
            "outputs": [
                {
                    "internalType": "uint256",
                    "name": "",
                    "type": "uint256"
                }
            ],
            "stateMutability": "nonpayable",
            "type": "function"
        },
        {
            "inputs": [
                {
                    "internalType": "uint256",
                    "name": "tokenId",
                    "type": "uint256"
                }
            ],
            "name": "getApproved",
            "outputs": [
                {
                    "internalType": "address",
                    "name": "",
                    "type": "address"
                }
            ],
            "stateMutability": "view",
            "type": "function"
        },
        {
            "inputs": [
                {
                    "internalType": "address",
                    "name": "owner",
                    "type": "address"
                },
                {
                    "internalType": "address",
                    "name": "operator",
                    "type": "address"
                }
            ],
            "name": "isApprovedForAll",
            "outputs": [
                {
                    "internalType": "bool",
                    "name": "",
                    "type": "bool"
                }
            ],
            "stateMutability": "view",
            "type": "function"
        },
        {
            "inputs": [],
            "name": "name",
            "outputs": [
                {
                    "internalType": "string",
                    "name": "",
                    "type": "string"
                }
            ],
            "stateMutability": "view",
            "type": "function"
        },
        {
            "inputs": [
                {
                    "internalType": "uint256",
                    "name": "tokenId",
                    "type": "uint256"
                }
            ],
            "name": "ownerOf",
            "outputs": [
                {
                    "internalType": "address",
                    "name": "",
                    "type": "address"
                }
            ],
            "stateMutability": "view",
            "type": "function"
        },
        {
            "inputs": [
                {
                    "internalType": "address",
                    "name": "from",
                    "type": "address"
                },
                {
                    "internalType": "address",
                    "name": "to",
                    "type": "address"
                },
                {
                    "internalType": "uint256",
                    "name": "tokenId",
                    "type": "uint256"
                }
            ],
            "name": "safeTransferFrom",
            "outputs": [],
            "stateMutability": "nonpayable",
            "type": "function"
        },
        {
            "inputs": [
                {
                    "internalType": "address",
                    "name": "from",
                    "type": "address"
                },
                {
                    "internalType": "address",
                    "name": "to",
                    "type": "address"
                },
                {
                    "internalType": "uint256",
                    "name": "tokenId",
                    "type": "uint256"
                },
                {
                    "internalType": "bytes",
                    "name": "_data",
                    "type": "bytes"
                }
            ],
            "name": "safeTransferFrom",
            "outputs": [],
            "stateMutability": "nonpayable",
            "type": "function"
        },
        {
            "inputs": [
                {
                    "internalType": "address",
                    "name": "operator",
                    "type": "address"
                },
                {
                    "internalType": "bool",
                    "name": "approved",
                    "type": "bool"
                }
            ],
            "name": "setApprovalForAll",
            "outputs": [],
            "stateMutability": "nonpayable",
            "type": "function"
        },
        {
            "inputs": [
                {
                    "internalType": "bytes4",
                    "name": "interfaceId",
                    "type": "bytes4"
                }
            ],
            "name": "supportsInterface",
            "outputs": [
                {
                    "internalType": "bool",
                    "name": "",
                    "type": "bool"
                }
            ],
            "stateMutability": "view",
            "type": "function"
        },
        {
            "inputs": [],
            "name": "symbol",
            "outputs": [
                {
                    "internalType": "string",
                    "name": "",
                    "type": "string"
                }
            ],
            "stateMutability": "view",
            "type": "function"
        },
        {
            "inputs": [
                {
                    "internalType": "uint256",
                    "name": "tokenId",
                    "type": "uint256"
                }
            ],
            "name": "tokenURI",
            "outputs": [
                {
                    "internalType": "string",
                    "name": "",
                    "type": "string"
                }
            ],
            "stateMutability": "view",
            "type": "function"
        },
        {
            "inputs": [
                {
                    "internalType": "address",
                    "name": "from",
                    "type": "address"
                },
                {
                    "internalType": "address",
                    "name": "to",
                    "type": "address"
                },
                {
                    "internalType": "uint256",
                    "name": "tokenId",
                    "type": "uint256"
                }
            ],
            "name": "transferFrom",
            "outputs": [],
            "stateMutability": "nonpayable",
            "type": "function"
        }
    ],
    "bytecode": "60806040523480156200001157600080fd5b506040516200173b3803806200173b833981016040819052620000349162000203565b8151829082906200004d90600090602085019062000090565b5080516200006390600190602084019062000090565b5050600880546001600160a01b0319166001600160a01b03959095169490941790935550620002ca915050565b8280546200009e906200028d565b90600052602060002090601f016020900481019282620000c257600085556200010d565b82601f10620000dd57805160ff19168380011785556200010d565b828001600101855582156200010d579182015b828111156200010d578251825591602001919060010190620000f0565b506200011b9291506200011f565b5090565b5b808211156200011b576000815560010162000120565b634e487b7160e01b600052604160045260246000fd5b600082601f8301126200015e57600080fd5b81516001600160401b03808211156200017b576200017b62000136565b604051601f8301601f19908116603f01168101908282118183101715620001a657620001a662000136565b81604052838152602092508683858801011115620001c357600080fd5b600091505b83821015620001e75785820183015181830184015290820190620001c8565b83821115620001f95760008385830101525b9695505050505050565b6000806000606084860312156200021957600080fd5b83516001600160a01b03811681146200023157600080fd5b60208501519093506001600160401b03808211156200024f57600080fd5b6200025d878388016200014c565b935060408601519150808211156200027457600080fd5b5062000283868287016200014c565b9150509250925092565b600181811c90821680620002a257607f821691505b60208210811415620002c457634e487b7160e01b600052602260045260246000fd5b50919050565b61146180620002da6000396000f3fe608060405234801561001057600080fd5b50600436106100ea5760003560e01c806370a082311161008c578063b88d4fde11610066578063b88d4fde146101e1578063c87b56dd146101f4578063da2ed03e14610207578063e985e9c51461021b57600080fd5b806370a08231146101a557806395d89b41146101c6578063a22cb465146101ce57600080fd5b8063095ea7b3116100c8578063095ea7b31461015757806323b872dd1461016c57806342842e0e1461017f5780636352211e1461019257600080fd5b806301ffc9a7146100ef57806306fdde0314610117578063081812fc1461012c575b600080fd5b6101026100fd366004610f12565b610257565b60405190151581526020015b60405180910390f35b61011f6102a9565b60405161010e9190610f87565b61013f61013a366004610f9a565b61033b565b6040516001600160a01b03909116815260200161010e565b61016a610165366004610fcf565b6103d5565b005b61016a61017a366004610ff9565b6104eb565b61016a61018d366004610ff9565b61051c565b61013f6101a0366004610f9a565b610537565b6101b86101b3366004611035565b6105ae565b60405190815260200161010e565b61011f610635565b61016a6101dc366004611050565b610644565b61016a6101ef366004611118565b610653565b61011f610202366004610f9a565b61068b565b6101b8610215366004611194565b50600090565b6101026102293660046111dd565b6001600160a01b03918216600090815260056020908152604080832093909416825291909152205460ff1690565b60006001600160e01b031982166380ac58cd60e01b148061028857506001600160e01b03198216635b5e139f60e01b145b806102a357506301ffc9a760e01b6001600160e01b03198316145b92915050565b6060600080546102b890611210565b80601f01602080910402602001604051908101604052809291908181526020018280546102e490611210565b80156103315780601f1061030657610100808354040283529160200191610331565b820191906000526020600020905b81548152906001019060200180831161031457829003601f168201915b5050505050905090565b6000818152600260205260408120546001600160a01b03166103b95760405162461bcd60e51b815260206004820152602c60248201527f4552433732313a20617070726f76656420717565727920666f72206e6f6e657860448201526b34b9ba32b73a103a37b5b2b760a11b60648201526084015b60405180910390fd5b506000908152600460205260409020546001600160a01b031690565b60006103e082610537565b9050806001600160a01b0316836001600160a01b0316141561044e5760405162461bcd60e51b815260206004820152602160248201527f4552433732313a20617070726f76616c20746f2063757272656e74206f776e656044820152603960f91b60648201526084016103b0565b336001600160a01b038216148061046a575061046a8133610229565b6104dc5760405162461bcd60e51b815260206004820152603860248201527f4552433732313a20617070726f76652063616c6c6572206973206e6f74206f7760448201527f6e6572206e6f7220617070726f76656420666f7220616c6c000000000000000060648201526084016103b0565b6104e68383610812565b505050565b6104f53382610880565b6105115760405162461bcd60e51b81526004016103b09061124b565b6104e6838383610973565b6104e683838360405180602001604052806000815250610653565b6000818152600260205260408120546001600160a01b0316806102a35760405162461bcd60e51b815260206004820152602960248201527f4552433732313a206f776e657220717565727920666f72206e6f6e657869737460448201526832b73a103a37b5b2b760b91b60648201526084016103b0565b60006001600160a01b0382166106195760405162461bcd60e51b815260206004820152602a60248201527f4552433732313a2062616c616e636520717565727920666f7220746865207a65604482015269726f206164647265737360b01b60648201526084016103b0565b506001600160a01b031660009081526003602052604090205490565b6060600180546102b890611210565b61064f338383610b13565b5050565b61065d3383610880565b6106795760405162461bcd60e51b81526004016103b09061124b565b61068584848484610be2565b50505050565b6000818152600260205260409020546060906001600160a01b031661070c5760405162461bcd60e51b815260206004820152603160248201527f45524337323155524953746f726167653a2055524920717565727920666f72206044820152703737b732bc34b9ba32b73a103a37b5b2b760791b60648201526084016103b0565b6000828152600660205260408120805461072590611210565b80601f016020809104026020016040519081016040528092919081815260200182805461075190611210565b801561079e5780601f106107735761010080835404028352916020019161079e565b820191906000526020600020905b81548152906001019060200180831161078157829003601f168201915b5050505050905060006107bc60408051602081019091526000815290565b90508051600014156107cf575092915050565b8151156108015780826040516020016107e992919061129c565b60405160208183030381529060405292505050919050565b61080a84610c15565b949350505050565b600081815260046020526040902080546001600160a01b0319166001600160a01b038416908117909155819061084782610537565b6001600160a01b03167f8c5be1e5ebec7d5bd14f71427d1e84f3dd0314c0f7b2291e5b200ac8c7c3b92560405160405180910390a45050565b6000818152600260205260408120546001600160a01b03166108f95760405162461bcd60e51b815260206004820152602c60248201527f4552433732313a206f70657261746f7220717565727920666f72206e6f6e657860448201526b34b9ba32b73a103a37b5b2b760a11b60648201526084016103b0565b600061090483610537565b9050806001600160a01b0316846001600160a01b0316148061093f5750836001600160a01b03166109348461033b565b6001600160a01b0316145b8061080a57506001600160a01b0380821660009081526005602090815260408083209388168352929052205460ff1661080a565b826001600160a01b031661098682610537565b6001600160a01b0316146109ee5760405162461bcd60e51b815260206004820152602960248201527f4552433732313a207472616e73666572206f6620746f6b656e2074686174206960448201526839903737ba1037bbb760b91b60648201526084016103b0565b6001600160a01b038216610a505760405162461bcd60e51b8152602060048201526024808201527f4552433732313a207472616e7366657220746f20746865207a65726f206164646044820152637265737360e01b60648201526084016103b0565b610a5b600082610812565b6001600160a01b0383166000908152600360205260408120805460019290610a849084906112e1565b90915550506001600160a01b0382166000908152600360205260408120805460019290610ab29084906112f8565b909155505060008181526002602052604080822080546001600160a01b0319166001600160a01b0386811691821790925591518493918716917fddf252ad1be2c89b69c2b068fc378daa952ba7f163c4a11628f55a4df523b3ef91a4505050565b816001600160a01b0316836001600160a01b03161415610b755760405162461bcd60e51b815260206004820152601960248201527f4552433732313a20617070726f766520746f2063616c6c65720000000000000060448201526064016103b0565b6001600160a01b03838116600081815260056020908152604080832094871680845294825291829020805460ff191686151590811790915591519182527f17307eab39ab6107e8899845ad3d59bd9653f200f220920489ca2b5937696c31910160405180910390a3505050565b610bed848484610973565b610bf984848484610cfd565b6106855760405162461bcd60e51b81526004016103b090611310565b6000818152600260205260409020546060906001600160a01b0316610c945760405162461bcd60e51b815260206004820152602f60248201527f4552433732314d657461646174613a2055524920717565727920666f72206e6f60448201526e3732bc34b9ba32b73a103a37b5b2b760891b60648201526084016103b0565b6000610cab60408051602081019091526000815290565b90506000815111610ccb5760405180602001604052806000815250610cf6565b80610cd584610dfb565b604051602001610ce692919061129c565b6040516020818303038152906040525b9392505050565b60006001600160a01b0384163b15610df057604051630a85bd0160e11b81526001600160a01b0385169063150b7a0290610d41903390899088908890600401611362565b6020604051808303816000875af1925050508015610d7c575060408051601f3d908101601f19168201909252610d799181019061139f565b60015b610dd6573d808015610daa576040519150601f19603f3d011682016040523d82523d6000602084013e610daf565b606091505b508051610dce5760405162461bcd60e51b81526004016103b090611310565b805181602001fd5b6001600160e01b031916630a85bd0160e11b14905061080a565b506001949350505050565b606081610e1f5750506040805180820190915260018152600360fc1b602082015290565b8160005b8115610e495780610e33816113bc565b9150610e429050600a836113ed565b9150610e23565b60008167ffffffffffffffff811115610e6457610e6461108c565b6040519080825280601f01601f191660200182016040528015610e8e576020820181803683370190505b5090505b841561080a57610ea36001836112e1565b9150610eb0600a86611401565b610ebb9060306112f8565b60f81b818381518110610ed057610ed0611415565b60200101906001600160f81b031916908160001a905350610ef2600a866113ed565b9450610e92565b6001600160e01b031981168114610f0f57600080fd5b50565b600060208284031215610f2457600080fd5b8135610cf681610ef9565b60005b83811015610f4a578181015183820152602001610f32565b838111156106855750506000910152565b60008151808452610f73816020860160208601610f2f565b601f01601f19169290920160200192915050565b602081526000610cf66020830184610f5b565b600060208284031215610fac57600080fd5b5035919050565b80356001600160a01b0381168114610fca57600080fd5b919050565b60008060408385031215610fe257600080fd5b610feb83610fb3565b946020939093013593505050565b60008060006060848603121561100e57600080fd5b61101784610fb3565b925061102560208501610fb3565b9150604084013590509250925092565b60006020828403121561104757600080fd5b610cf682610fb3565b6000806040838503121561106357600080fd5b61106c83610fb3565b91506020830135801515811461108157600080fd5b809150509250929050565b634e487b7160e01b600052604160045260246000fd5b600067ffffffffffffffff808411156110bd576110bd61108c565b604051601f8501601f19908116603f011681019082821181831017156110e5576110e561108c565b816040528093508581528686860111156110fe57600080fd5b858560208301376000602087830101525050509392505050565b6000806000806080858703121561112e57600080fd5b61113785610fb3565b935061114560208601610fb3565b925060408501359150606085013567ffffffffffffffff81111561116857600080fd5b8501601f8101871361117957600080fd5b611188878235602084016110a2565b91505092959194509250565b6000602082840312156111a657600080fd5b813567ffffffffffffffff8111156111bd57600080fd5b8201601f810184136111ce57600080fd5b61080a848235602084016110a2565b600080604083850312156111f057600080fd5b6111f983610fb3565b915061120760208401610fb3565b90509250929050565b600181811c9082168061122457607f821691505b6020821081141561124557634e487b7160e01b600052602260045260246000fd5b50919050565b60208082526031908201527f4552433732313a207472616e736665722063616c6c6572206973206e6f74206f6040820152701ddb995c881b9bdc88185c1c1c9bdd9959607a1b606082015260800190565b600083516112ae818460208801610f2f565b8351908301906112c2818360208801610f2f565b01949350505050565b634e487b7160e01b600052601160045260246000fd5b6000828210156112f3576112f36112cb565b500390565b6000821982111561130b5761130b6112cb565b500190565b60208082526032908201527f4552433732313a207472616e7366657220746f206e6f6e20455243373231526560408201527131b2b4bb32b91034b6b83632b6b2b73a32b960711b606082015260800190565b6001600160a01b038581168252841660208201526040810183905260806060820181905260009061139590830184610f5b565b9695505050505050565b6000602082840312156113b157600080fd5b8151610cf681610ef9565b60006000198214156113d0576113d06112cb565b5060010190565b634e487b7160e01b600052601260045260246000fd5b6000826113fc576113fc6113d7565b500490565b600082611410576114106113d7565b500690565b634e487b7160e01b600052603260045260246000fdfea264697066735822122088b49739851f4394def73d336850831933c95f83c6fb85c05f6c0d62a437f77864736f6c634300080a0033",
    "sourcePath": "/Users/tomislavdrachev/limechain-nft-marketplace/contracts/NFT.sol",
    "compiler": {
        "name": "solc",
        "version": "0.8.10+commit.fc410830"
    },
    "functionHashes": {
        "approve(address,uint256)": "095ea7b3",
        "balanceOf(address)": "70a08231",
        "createNFT(string)": "da2ed03e",
        "getApproved(uint256)": "081812fc",
        "isApprovedForAll(address,address)": "e985e9c5",
        "name()": "06fdde03",
        "ownerOf(uint256)": "6352211e",
        "safeTransferFrom(address,address,uint256)": "42842e0e",
        "safeTransferFrom(address,address,uint256,bytes)": "b88d4fde",
        "setApprovalForAll(address,bool)": "a22cb465",
        "supportsInterface(bytes4)": "01ffc9a7",
        "symbol()": "95d89b41",
        "tokenURI(uint256)": "c87b56dd",
        "transferFrom(address,address,uint256)": "23b872dd"
    },
    "gasEstimates": {
        "creation": {
            "codeDepositCost": "1043400",
            "executionCost": "infinite",
            "totalCost": "infinite"
        },
        "external": {
            "approve(address,uint256)": "infinite",
            "balanceOf(address)": "2612",
            "createNFT(string)": "infinite",
            "getApproved(uint256)": "4760",
            "isApprovedForAll(address,address)": "infinite",
            "name()": "infinite",
            "ownerOf(uint256)": "2645",
            "safeTransferFrom(address,address,uint256)": "infinite",
            "safeTransferFrom(address,address,uint256,bytes)": "infinite",
            "setApprovalForAll(address,bool)": "26753",
            "supportsInterface(bytes4)": "534",
            "symbol()": "infinite",
            "tokenURI(uint256)": "infinite",
            "transferFrom(address,address,uint256)": "infinite"
        }
    }
}