{
    "contractName": "NFTMarketplace",
    "abi": [
        {
            "anonymous": false,
            "inputs": [
                {
                    "indexed": true,
                    "internalType": "uint256",
                    "name": "tokenID",
                    "type": "uint256"
                },
                {
                    "indexed": true,
                    "internalType": "uint256",
                    "name": "itemID",
                    "type": "uint256"
                },
                {
                    "indexed": false,
                    "internalType": "uint256",
                    "name": "price",
                    "type": "uint256"
                },
                {
                    "indexed": true,
                    "internalType": "address",
                    "name": "nftContract",
                    "type": "address"
                },
                {
                    "indexed": false,
                    "internalType": "address",
                    "name": "seller",
                    "type": "address"
                },
                {
                    "indexed": false,
                    "internalType": "address",
                    "name": "owner",
                    "type": "address"
                },
                {
                    "indexed": false,
                    "internalType": "bool",
                    "name": "sold",
                    "type": "bool"
                }
            ],
            "name": "MarketplaceItemListed",
            "type": "event"
        },
        {
            "anonymous": false,
            "inputs": [
                {
                    "indexed": true,
                    "internalType": "uint256",
                    "name": "tokenID",
                    "type": "uint256"
                },
                {
                    "indexed": true,
                    "internalType": "uint256",
                    "name": "itemID",
                    "type": "uint256"
                },
                {
                    "indexed": false,
                    "internalType": "uint256",
                    "name": "price",
                    "type": "uint256"
                },
                {
                    "indexed": true,
                    "internalType": "address",
                    "name": "nftContract",
                    "type": "address"
                },
                {
                    "indexed": false,
                    "internalType": "address",
                    "name": "seller",
                    "type": "address"
                },
                {
                    "indexed": false,
                    "internalType": "address",
                    "name": "owner",
                    "type": "address"
                },
                {
                    "indexed": false,
                    "internalType": "bool",
                    "name": "sold",
                    "type": "bool"
                }
            ],
            "name": "MarketplaceItemSoldI",
            "type": "event"
        },
        {
            "inputs": [],
            "name": "getMarketplaceTax",
            "outputs": [
                {
                    "internalType": "uint256",
                    "name": "",
                    "type": "uint256"
                }
            ],
            "stateMutability": "view",
            "type": "function"
        }
    ],
    "bytecode": "60806040526658d15e17628000600455348015601a57600080fd5b50600160005560788061002e6000396000f3fe6080604052348015600f57600080fd5b506004361060285760003560e01c80637c935f4e14602d575b600080fd5b60045460405190815260200160405180910390f3fea2646970667358221220e4bed8a50e2bc193c3eee9c7ccf6eb918439e019b5d6b25e06b7d5a983db083d64736f6c634300080a0033",
    "sourcePath": "/Users/tomislavdrachev/limechain-nft-marketplace/contracts/NFTMarketplace.sol",
    "compiler": {
        "name": "solc",
        "version": "0.8.10+commit.fc410830"
    },
    "functionHashes": {
        "getMarketplaceTax()": "7c935f4e"
    },
    "gasEstimates": {
        "creation": {
            "codeDepositCost": "24000",
            "executionCost": "44287",
            "totalCost": "68287"
        },
        "external": {
            "getMarketplaceTax()": "2246"
        }
    }
}